{
  "contractName": "EcommerceStore",
  "abi": [
    {
      "constant": true,
      "inputs": [],
      "name": "productIndex",
      "outputs": [
        {
          "name": "",
          "type": "uint256"
        }
      ],
      "payable": false,
      "stateMutability": "view",
      "type": "function"
    },
    {
      "inputs": [],
      "payable": false,
      "stateMutability": "nonpayable",
      "type": "constructor"
    },
    {
      "anonymous": false,
      "inputs": [],
      "name": "startPriceErr",
      "type": "event"
    },
    {
      "constant": false,
      "inputs": [
        {
          "name": "_name",
          "type": "string"
        },
        {
          "name": "_categore",
          "type": "string"
        },
        {
          "name": "_imageLink",
          "type": "string"
        },
        {
          "name": "_descLink",
          "type": "string"
        },
        {
          "name": "_auctionStartTime",
          "type": "uint256"
        },
        {
          "name": "_auctionEndTime",
          "type": "uint256"
        },
        {
          "name": "_startPrice",
          "type": "uint256"
        },
        {
          "name": "_condition",
          "type": "uint8"
        }
      ],
      "name": "addProductToStore",
      "outputs": [],
      "payable": true,
      "stateMutability": "payable",
      "type": "function"
    },
    {
      "constant": true,
      "inputs": [
        {
          "name": "_productId",
          "type": "uint256"
        }
      ],
      "name": "getProduct",
      "outputs": [
        {
          "name": "",
          "type": "uint256"
        },
        {
          "name": "",
          "type": "string"
        },
        {
          "name": "",
          "type": "string"
        },
        {
          "name": "",
          "type": "string"
        },
        {
          "name": "",
          "type": "string"
        },
        {
          "name": "",
          "type": "uint256"
        },
        {
          "name": "",
          "type": "uint256"
        },
        {
          "name": "",
          "type": "uint256"
        },
        {
          "name": "",
          "type": "uint256"
        },
        {
          "name": "",
          "type": "uint256"
        }
      ],
      "payable": false,
      "stateMutability": "view",
      "type": "function"
    },
    {
      "constant": false,
      "inputs": [
        {
          "name": "_productId",
          "type": "uint256"
        },
        {
          "name": "_bid",
          "type": "uint256"
        }
      ],
      "name": "bid",
      "outputs": [
        {
          "name": "",
          "type": "bool"
        }
      ],
      "payable": true,
      "stateMutability": "payable",
      "type": "function"
    },
    {
      "constant": true,
      "inputs": [
        {
          "name": "_productId",
          "type": "uint256"
        }
      ],
      "name": "highestBidderInfo",
      "outputs": [
        {
          "name": "",
          "type": "address"
        },
        {
          "name": "",
          "type": "uint256"
        },
        {
          "name": "",
          "type": "uint256"
        }
      ],
      "payable": false,
      "stateMutability": "view",
      "type": "function"
    },
    {
      "constant": true,
      "inputs": [
        {
          "name": "_productId",
          "type": "uint256"
        }
      ],
      "name": "totalBids",
      "outputs": [
        {
          "name": "",
          "type": "uint256"
        }
      ],
      "payable": false,
      "stateMutability": "view",
      "type": "function"
    },
    {
      "constant": false,
      "inputs": [
        {
          "name": "_productId",
          "type": "uint256"
        }
      ],
      "name": "finalizeAuction",
      "outputs": [],
      "payable": false,
      "stateMutability": "nonpayable",
      "type": "function"
    },
    {
      "constant": false,
      "inputs": [
        {
          "name": "_productId",
          "type": "uint256"
        }
      ],
      "name": "productUnsold",
      "outputs": [],
      "payable": false,
      "stateMutability": "nonpayable",
      "type": "function"
    }
  ],
  "bytecode": "0x608060405234801561001057600080fd5b5060008081905550611fca806100276000396000f30060806040526004361061008e576000357c0100000000000000000000000000000000000000000000000000000000900463ffffffff16806328e3d1901461009357806356b95350146100d4578063598647f81461022d578063b9db15b41461026f578063c897d5a614610483578063cd449e80146104ae578063ce818ea9146104db578063e808386314610556575b600080fd5b34801561009f57600080fd5b506100be60048036038101908080359060200190929190505050610583565b6040518082815260200191505060405180910390f35b61022b600480360381019080803590602001908201803590602001908080601f0160208091040260200160405190810160405280939291908181526020018383808284378201915050505050509192919290803590602001908201803590602001908080601f0160208091040260200160405190810160405280939291908181526020018383808284378201915050505050509192919290803590602001908201803590602001908080601f0160208091040260200160405190810160405280939291908181526020018383808284378201915050505050509192919290803590602001908201803590602001908080601f0160208091040260200160405190810160405280939291908181526020018383808284378201915050505050509192919290803590602001909291908035906020019092919080359060200190929190803560ff1690602001909291905050506109d4565b005b6102556004803603810190808035906020019092919080359060200190929190505050610d36565b604051808215151515815260200191505060405180910390f35b34801561027b57600080fd5b5061029a6004803603810190808035906020019092919050505061117a565b604051808b8152602001806020018060200180602001806020018a815260200189815260200188815260200187815260200186815260200185810385528e818151815260200191508051906020019080838360005b8381101561030a5780820151818401526020810190506102ef565b50505050905090810190601f1680156103375780820380516001836020036101000a031916815260200191505b5085810384528d818151815260200191508051906020019080838360005b83811015610370578082015181840152602081019050610355565b50505050905090810190601f16801561039d5780820380516001836020036101000a031916815260200191505b5085810383528c818151815260200191508051906020019080838360005b838110156103d65780820151818401526020810190506103bb565b50505050905090810190601f1680156104035780820380516001836020036101000a031916815260200191505b5085810382528b818151815260200191508051906020019080838360005b8381101561043c578082015181840152602081019050610421565b50505050905090810190601f1680156104695780820380516001836020036101000a031916815260200191505b509e50505050505050505050505050505060405180910390f35b34801561048f57600080fd5b5061049861162d565b6040518082815260200191505060405180910390f35b3480156104ba57600080fd5b506104d960048036038101908080359060200190929190505050611633565b005b3480156104e757600080fd5b5061050660048036038101908080359060200190929190505050611787565b604051808473ffffffffffffffffffffffffffffffffffffffff1673ffffffffffffffffffffffffffffffffffffffff168152602001838152602001828152602001935050505060405180910390f35b34801561056257600080fd5b5061058160048036038101908080359060200190929190505050611bed565b005b600061058d611e52565b600260006001600086815260200190815260200160002060009054906101000a900473ffffffffffffffffffffffffffffffffffffffff1673ffffffffffffffffffffffffffffffffffffffff1673ffffffffffffffffffffffffffffffffffffffff16815260200190815260200160002060008481526020019081526020016000206101c0604051908101604052908160008201548152602001600182018054600181600116156101000203166002900480601f0160208091040260200160405190810160405280929190818152602001828054600181600116156101000203166002900480156106c05780601f10610695576101008083540402835291602001916106c0565b820191906000526020600020905b8154815290600101906020018083116106a357829003601f168201915b50505050508152602001600282018054600181600116156101000203166002900480601f0160208091040260200160405190810160405280929190818152602001828054600181600116156101000203166002900480156107625780601f1061073757610100808354040283529160200191610762565b820191906000526020600020905b81548152906001019060200180831161074557829003601f168201915b50505050508152602001600382018054600181600116156101000203166002900480601f0160208091040260200160405190810160405280929190818152602001828054600181600116156101000203166002900480156108045780601f106107d957610100808354040283529160200191610804565b820191906000526020600020905b8154815290600101906020018083116107e757829003601f168201915b50505050508152602001600482018054600181600116156101000203166002900480601f0160208091040260200160405190810160405280929190818152602001828054600181600116156101000203166002900480156108a65780601f1061087b576101008083540402835291602001916108a6565b820191906000526020600020905b81548152906001019060200180831161088957829003601f168201915b505050505081526020016005820154815260200160068201548152602001600782015481526020016008820160009054906101000a900460ff1660018111156108eb57fe5b60018111156108f657fe5b81526020016008820160019054906101000a900473ffffffffffffffffffffffffffffffffffffffff1673ffffffffffffffffffffffffffffffffffffffff1673ffffffffffffffffffffffffffffffffffffffff16815260200160098201548152602001600a820160009054906101000a900473ffffffffffffffffffffffffffffffffffffffff1673ffffffffffffffffffffffffffffffffffffffff1673ffffffffffffffffffffffffffffffffffffffff168152602001600b8201548152602001600c820154815250509050806101a00151915050919050565b6109dc611e52565b83851015156109ea57600080fd5b600160008082825401925050819055506101c06040519081016040528060005481526020018a8152602001898152602001888152602001878152602001868152602001858152602001848152602001836001811115610a4557fe5b8152602001600073ffffffffffffffffffffffffffffffffffffffff16815260200160008152602001600073ffffffffffffffffffffffffffffffffffffffff168152602001600081526020016000815250905080600260003373ffffffffffffffffffffffffffffffffffffffff1673ffffffffffffffffffffffffffffffffffffffff168152602001908152602001600020600080548152602001908152602001600020600082015181600001556020820151816001019080519060200190610b11929190611ef9565b506040820151816002019080519060200190610b2e929190611ef9565b506060820151816003019080519060200190610b4b929190611ef9565b506080820151816004019080519060200190610b68929190611ef9565b5060a0820151816005015560c0820151816006015560e082015181600701556101008201518160080160006101000a81548160ff02191690836001811115610bac57fe5b02179055506101208201518160080160016101000a81548173ffffffffffffffffffffffffffffffffffffffff021916908373ffffffffffffffffffffffffffffffffffffffff160217905550610140820151816009015561016082015181600a0160006101000a81548173ffffffffffffffffffffffffffffffffffffffff021916908373ffffffffffffffffffffffffffffffffffffffff16021790555061018082015181600b01556101a082015181600c015590505033600160008054815260200190815260200160002060006101000a81548173ffffffffffffffffffffffffffffffffffffffff021916908373ffffffffffffffffffffffffffffffffffffffff160217905550346004600080548152602001908152602001600020819055506000600560008054815260200190815260200160002060006101000a81548160ff0219169083151502179055506000600660008054815260200190815260200160002060006101000a81548160ff021916908315150217905550505050505050505050565b600080600260006001600087815260200190815260200160002060009054906101000a900473ffffffffffffffffffffffffffffffffffffffff1673ffffffffffffffffffffffffffffffffffffffff1673ffffffffffffffffffffffffffffffffffffffff1681526020019081526020016000206000858152602001908152602001600020905080600501544210151515610dd157600080fd5b80600601544211151515610de457600080fd5b8060070154341015610e2a577f817c04327c57cd3d091a38d213cd103c11f00916c899a1bc2183d578ecdf155960405160405180910390a160001515610e2957600080fd5b5b6060604051908101604052803373ffffffffffffffffffffffffffffffffffffffff1681526020018581526020013481525081600d0160003373ffffffffffffffffffffffffffffffffffffffff1673ffffffffffffffffffffffffffffffffffffffff168152602001908152602001600020600085815260200190815260200160002060008201518160000160006101000a81548173ffffffffffffffffffffffffffffffffffffffff021916908373ffffffffffffffffffffffffffffffffffffffff1602179055506020820151816001015560408201518160020155905050600181600c016000828254019250508190555060008160080160019054906101000a900473ffffffffffffffffffffffffffffffffffffffff1673ffffffffffffffffffffffffffffffffffffffff161415610fc057338160080160016101000a81548173ffffffffffffffffffffffffffffffffffffffff021916908373ffffffffffffffffffffffffffffffffffffffff160217905550348160090181905550806007015481600b018190555061116f565b806009015434101515611160578060080160019054906101000a900473ffffffffffffffffffffffffffffffffffffffff1673ffffffffffffffffffffffffffffffffffffffff163373ffffffffffffffffffffffffffffffffffffffff161415151561102c57600080fd5b806009015481600b01819055508060080160019054906101000a900473ffffffffffffffffffffffffffffffffffffffff1681600a0160006101000a81548173ffffffffffffffffffffffffffffffffffffffff021916908373ffffffffffffffffffffffffffffffffffffffff160217905550348160090181905550338160080160016101000a81548173ffffffffffffffffffffffffffffffffffffffff021916908373ffffffffffffffffffffffffffffffffffffffff16021790555080600a0160009054906101000a900473ffffffffffffffffffffffffffffffffffffffff1673ffffffffffffffffffffffffffffffffffffffff166108fc82600b01549081150290604051600060405180830381858888f1935050505015801561115a573d6000803e3d6000fd5b5061116e565b6000151561116d57600080fd5b5b5b600191505092915050565b60006060806060806000806000806000611192611e52565b60026000600160008f815260200190815260200160002060009054906101000a900473ffffffffffffffffffffffffffffffffffffffff1673ffffffffffffffffffffffffffffffffffffffff1673ffffffffffffffffffffffffffffffffffffffff16815260200190815260200160002060008d81526020019081526020016000206101c0604051908101604052908160008201548152602001600182018054600181600116156101000203166002900480601f0160208091040260200160405190810160405280929190818152602001828054600181600116156101000203166002900480156112c55780601f1061129a576101008083540402835291602001916112c5565b820191906000526020600020905b8154815290600101906020018083116112a857829003601f168201915b50505050508152602001600282018054600181600116156101000203166002900480601f0160208091040260200160405190810160405280929190818152602001828054600181600116156101000203166002900480156113675780601f1061133c57610100808354040283529160200191611367565b820191906000526020600020905b81548152906001019060200180831161134a57829003601f168201915b50505050508152602001600382018054600181600116156101000203166002900480601f0160208091040260200160405190810160405280929190818152602001828054600181600116156101000203166002900480156114095780601f106113de57610100808354040283529160200191611409565b820191906000526020600020905b8154815290600101906020018083116113ec57829003601f168201915b50505050508152602001600482018054600181600116156101000203166002900480601f0160208091040260200160405190810160405280929190818152602001828054600181600116156101000203166002900480156114ab5780601f10611480576101008083540402835291602001916114ab565b820191906000526020600020905b81548152906001019060200180831161148e57829003601f168201915b505050505081526020016005820154815260200160068201548152602001600782015481526020016008820160009054906101000a900460ff1660018111156114f057fe5b60018111156114fb57fe5b81526020016008820160019054906101000a900473ffffffffffffffffffffffffffffffffffffffff1673ffffffffffffffffffffffffffffffffffffffff1673ffffffffffffffffffffffffffffffffffffffff16815260200160098201548152602001600a820160009054906101000a900473ffffffffffffffffffffffffffffffffffffffff1673ffffffffffffffffffffffffffffffffffffffff1673ffffffffffffffffffffffffffffffffffffffff168152602001600b8201548152602001600c820154815250509050806000015181602001518260400151836060015184608001518560a001518660c001518760e00151886101a001518961014001518898508797508696508595509a509a509a509a509a509a509a509a509a509a50509193959799509193959799565b60005481565b6001600082815260200190815260200160002060009054906101000a900473ffffffffffffffffffffffffffffffffffffffff1673ffffffffffffffffffffffffffffffffffffffff163373ffffffffffffffffffffffffffffffffffffffff161415156116a057600080fd5b600015156006600083815260200190815260200160002060009054906101000a900460ff1615151415156116d357600080fd5b6001600082815260200190815260200160002060009054906101000a900473ffffffffffffffffffffffffffffffffffffffff1673ffffffffffffffffffffffffffffffffffffffff166108fc60046000848152602001908152602001600020549081150290604051600060405180830381858888f1935050505015801561175f573d6000803e3d6000fd5b50600115156006600083815260200190815260200160002060009054906101000a9050505050565b6000806000611794611e52565b600260006001600088815260200190815260200160002060009054906101000a900473ffffffffffffffffffffffffffffffffffffffff1673ffffffffffffffffffffffffffffffffffffffff1673ffffffffffffffffffffffffffffffffffffffff16815260200190815260200160002060008681526020019081526020016000206101c0604051908101604052908160008201548152602001600182018054600181600116156101000203166002900480601f0160208091040260200160405190810160405280929190818152602001828054600181600116156101000203166002900480156118c75780601f1061189c576101008083540402835291602001916118c7565b820191906000526020600020905b8154815290600101906020018083116118aa57829003601f168201915b50505050508152602001600282018054600181600116156101000203166002900480601f0160208091040260200160405190810160405280929190818152602001828054600181600116156101000203166002900480156119695780601f1061193e57610100808354040283529160200191611969565b820191906000526020600020905b81548152906001019060200180831161194c57829003601f168201915b50505050508152602001600382018054600181600116156101000203166002900480601f016020809104026020016040519081016040528092919081815260200182805460018160011615610100020316600290048015611a0b5780601f106119e057610100808354040283529160200191611a0b565b820191906000526020600020905b8154815290600101906020018083116119ee57829003601f168201915b50505050508152602001600482018054600181600116156101000203166002900480601f016020809104026020016040519081016040528092919081815260200182805460018160011615610100020316600290048015611aad5780601f10611a8257610100808354040283529160200191611aad565b820191906000526020600020905b815481529060010190602001808311611a9057829003601f168201915b505050505081526020016005820154815260200160068201548152602001600782015481526020016008820160009054906101000a900460ff166001811115611af257fe5b6001811115611afd57fe5b81526020016008820160019054906101000a900473ffffffffffffffffffffffffffffffffffffffff1673ffffffffffffffffffffffffffffffffffffffff1673ffffffffffffffffffffffffffffffffffffffff16815260200160098201548152602001600a820160009054906101000a900473ffffffffffffffffffffffffffffffffffffffff1673ffffffffffffffffffffffffffffffffffffffff1673ffffffffffffffffffffffffffffffffffffffff168152602001600b8201548152602001600c820154815250509050806101200151816101400151826101800151935093509350509193909250565b6000600260006001600085815260200190815260200160002060009054906101000a900473ffffffffffffffffffffffffffffffffffffffff1673ffffffffffffffffffffffffffffffffffffffff1673ffffffffffffffffffffffffffffffffffffffff168152602001908152602001600020600083815260200190815260200160002090508060080160019054906101000a900473ffffffffffffffffffffffffffffffffffffffff1673ffffffffffffffffffffffffffffffffffffffff163373ffffffffffffffffffffffffffffffffffffffff16141515611cd257600080fd5b600015156005600084815260200190815260200160002060009054906101000a900460ff161515141515611d0557600080fd5b8060080160019054906101000a900473ffffffffffffffffffffffffffffffffffffffff1673ffffffffffffffffffffffffffffffffffffffff166108fc60068360090154811515611d5357fe5b049081150290604051600060405180830381858888f19350505050158015611d7f573d6000803e3d6000fd5b506001600083815260200190815260200160002060009054906101000a900473ffffffffffffffffffffffffffffffffffffffff1673ffffffffffffffffffffffffffffffffffffffff166108fc600560068460090154811515611ddf57fe5b04026004600086815260200190815260200160002054019081150290604051600060405180830381858888f19350505050158015611e21573d6000803e3d6000fd5b5060016005600084815260200190815260200160002060006101000a81548160ff0219169083151502179055505050565b6101c060405190810160405280600081526020016060815260200160608152602001606081526020016060815260200160008152602001600081526020016000815260200160006001811115611ea457fe5b8152602001600073ffffffffffffffffffffffffffffffffffffffff16815260200160008152602001600073ffffffffffffffffffffffffffffffffffffffff16815260200160008152602001600081525090565b828054600181600116156101000203166002900490600052602060002090601f016020900481019282601f10611f3a57805160ff1916838001178555611f68565b82800160010185558215611f68579182015b82811115611f67578251825591602001919060010190611f4c565b5b509050611f759190611f79565b5090565b611f9b91905b80821115611f97576000816000905550600101611f7f565b5090565b905600a165627a7a7230582050059d0f93d79d0503089dc3d2aaa22335ea60a18f49f5f238c93bf162c9c6b90029",
  "source": "pragma solidity ^0.4.17;\n\nimport \"./Escrow.sol\";\n\ncontract EcommerceStore {\n\n  uint public productIndex;\n  mapping (uint => address) productIdInStore;\n  mapping (address => mapping (uint => Product)) stores;\n  mapping (uint => address) productEscrow;\n  mapping (uint => uint) productDespositFromSeller;\n  mapping (uint => bool) isProductDespositRelease;\n  mapping (uint => bool) isProductUnsold;\n//  mapping (uint => mapping (uint => Bid)) public productRecords;\n\n\n  /* enum ProductStatus{\n    Open,\n    Sold,\n    Unsold,\n    Closed\n  } */\n\n  enum ProductCondition{\n    New,\n    Used\n  }\n\n  struct Bid{\n    address bidder;\n    uint productId;\n    uint value;\n  }\n\n  struct Product {\n    uint id;\n    string name;\n    string categore;\n    string imageLink;\n    string descLink;\n    uint auctionStartTime;\n    uint auctionEndTime;\n    uint startPrice;\n  //  ProductStatus status;\n    ProductCondition condition;\n    address highestBidder;\n    uint highestBid;\n    address secondHighestBidder;\n    uint secondHighestBid;\n    uint totalBids;\n\n    mapping (address => mapping (uint => Bid) ) bids;\n  }\n\n\n  event startPriceErr();\n\n\nfunction EcommerceStore() public{\n  productIndex=0;\n}\n\nfunction addProductToStore(string _name,string _categore,string _imageLink,string _descLink,\n  uint _auctionStartTime,uint _auctionEndTime,uint _startPrice,ProductCondition _condition) payable public{\n\n    require(_auctionStartTime<_auctionEndTime);\n    productIndex+=1;\n    Product memory product=Product(productIndex,_name,_categore,_imageLink,_descLink,_auctionStartTime\n      ,_auctionEndTime,_startPrice,_condition,0,0,0,0,0);\n    stores[msg.sender][productIndex]=product;\n    productIdInStore[productIndex]=msg.sender;\n    productDespositFromSeller[productIndex]= msg.value;\n    isProductDespositRelease[productIndex] = false;\n    isProductUnsold[productIndex] = false;\n}\n\n\nfunction getProduct(uint _productId) view public returns (uint,string,string,string,string,uint,uint,uint,uint,uint){\n    Product memory product=stores[productIdInStore[_productId]][_productId];\n    return(product.id,product.name,product.categore,product.imageLink,product.descLink,\n      product.auctionStartTime,product.auctionEndTime,product.startPrice, product.totalBids,product.highestBid);\n}\n\nfunction bid(uint _productId,uint _bid) payable public returns (bool) {\n  Product storage product = stores[productIdInStore[_productId]][_productId];\n  require(now >= product.auctionStartTime);\n  require(now <= product.auctionEndTime);\n\n  if(msg.value < product.startPrice){\n    emit startPriceErr();\n    require(false);\n  }\n//require(product.bids[msg.sender][_bid].bidder==0);\n  product.bids[msg.sender][_bid] = Bid(msg.sender,_productId,msg.value);\n  product.totalBids += 1;\n\n  if(address(product.highestBidder)==0){\n    product.highestBidder = msg.sender;\n    product.highestBid = msg.value;\n    product.secondHighestBid = product.startPrice;\n  }else{\n    if(msg.value >= product.highestBid){\n      require(msg.sender != product.highestBidder);\n      product.secondHighestBid = product.highestBid;\n      product.secondHighestBidder = product.highestBidder;\n      product.highestBid = msg.value;\n      product.highestBidder = msg.sender;\n      address(product.secondHighestBidder).transfer(product.secondHighestBid);\n    }else{\n      require(false);\n    }\n  }\n  return true;\n}\n\n\nfunction highestBidderInfo(uint _productId) view public returns(address,uint,uint) {\n  Product  memory product = stores[productIdInStore[_productId]][_productId];\n  return (product.highestBidder,product.highestBid,product.secondHighestBid);\n}\n\nfunction totalBids(uint _productId) view public returns (uint) {\n  Product memory product = stores[productIdInStore[_productId]][_productId];\n  return product.totalBids;\n}\n\nfunction stringToUint(string s) pure private returns(uint) {\n    bytes memory b = bytes(s);\n    uint result = 0;\n    for (uint i = 0; i < b.length; i++) {\n      if (b[i] >= 48 && b[i] <= 57) {\n        result = result * 10 + (uint(b[i]) - 48);\n      }\n    }\n    return result;\n  }\n\nfunction finalizeAuction(uint _productId) public {\n  Product storage product = stores[productIdInStore[_productId]][_productId];\n  require(msg.sender == product.highestBidder);\n  require(isProductDespositRelease[_productId] == false);\n  product.highestBidder.transfer(product.highestBid/6);\n  productIdInStore[_productId].transfer(productDespositFromSeller[_productId]+product.highestBid/6*5);\n  isProductDespositRelease[_productId] = true;\n}\n\nfunction productUnsold(uint _productId) public{\n  require(msg.sender ==  productIdInStore[_productId]);\n  require(isProductUnsold[_productId] == false);\n  productIdInStore[_productId].transfer(productDespositFromSeller[_productId]);\n  isProductUnsold[_productId] == true;\n}\n\n\n/* function getStatus(uint _productId)  public returns(ProductStatus){\n  Product storage product = stores[productIdInStore[_productId]][_productId];\n  if(now < product.auctionStartTime){\n    product.status = ProductStatus.Closed;\n  }else if(now < product.auctionEndTime){\n    product.status = ProductStatus.Open;\n  }else{\n    if(product.totalBids==0){\n      product.status = ProductStatus.Unsold;\n    }else{\n      product.status = ProductStatus.Sold;\n    }\n  }\n  return product.status;\n} */\n\n/* function startAuction(uint _productId) public {\n  Product storage product = stores[productIdInStore[_productId]][_productId];\n  if(msg.sender == product.highestBidder){\n    if(product.status == ProductStatus.Sold){\n      Escrow escrow = (new Escrow).value(product.startPrice/5)(_productId, product.highestBidder, productIdInStore[_productId]);\n      productEscrow[_productId] = address(escrow);\n    }\n  }else{\n    require(false);\n  } */\n  /* require(now > product.auctionEndTime);\n  require(product.status == ProductStatus.Open);\n  require(msg.sender != product.highestBidder);\n  require(msg.sender != productIdInStore[_productId]);\n\n  if(product.totalBids == 0){\n    product.status = ProductStatus.Unsold;\n  }else{\n    product.status = ProductStatus.Sold;\n    Escrow escrow = (new Escrow).value(product.secondHighestBid)(_productId, product.highestBidder,\n    productIdInStore[_productId], msg.sender);\n    productEscrow[_productId] = address(escrow);\n\n    uint refund  = product.highestBid - product.secondHighestBid;\n    product.highestBidder.transfer(refund);\n  } */\n\n\n\n/* function finalizeAuction(uint _productId) public{\n  Product storage product = stores[productIdInStore[_productId]][_productId];\n  require(msg.sender == product.highestBidder);\n  Escrow(productEscrow[_productId]).releaseDeposit();\n\n\n} */\n\n\n/* function escrowAddressForProduct(uint _productId) view public returns (address) {\n  return productEscrow[_productId];\n} */\n\n/* function escrowInfo(uint _productId) view public returns (address, address, address, bool, uint, uint) {\n  return Escrow(productEscrow[_productId]).escrowInfo();\n}\n\nfunction releaseAmountToSeller(uint _productId) public  {\n  Escrow(productEscrow[_productId]).releaseAmountToSeller(msg.sender);\n}\n\nfunction refundAmountToBuyer(uint _productId) public {\n  Escrow(productEscrow[_productId]).refundAmountToBuyer(msg.sender);\n} */\n\n}\n",
  "sourcePath": "/home/crownt/git/MYAuction/contracts/EcommerceStore.sol",
  "compiler": {
    "name": "solc",
    "version": "0.4.24+commit.e67f0147.Emscripten.clang"
  },
  "schemaVersion": "2.0.1",
  "updatedAt": "2018-07-31T03:02:41.074Z"
}