{
  "contractName": "Escrow",
  "abi": [
    {
      "constant": true,
      "inputs": [],
      "name": "seller",
      "outputs": [
        {
          "name": "",
          "type": "address"
        }
      ],
      "payable": false,
      "stateMutability": "view",
      "type": "function"
    },
    {
      "constant": true,
      "inputs": [],
      "name": "depositFromBuyer",
      "outputs": [
        {
          "name": "",
          "type": "uint256"
        }
      ],
      "payable": false,
      "stateMutability": "view",
      "type": "function"
    },
    {
      "constant": true,
      "inputs": [],
      "name": "buyer",
      "outputs": [
        {
          "name": "",
          "type": "address"
        }
      ],
      "payable": false,
      "stateMutability": "view",
      "type": "function"
    },
    {
      "constant": true,
      "inputs": [],
      "name": "amount",
      "outputs": [
        {
          "name": "",
          "type": "uint256"
        }
      ],
      "payable": false,
      "stateMutability": "view",
      "type": "function"
    },
    {
      "constant": true,
      "inputs": [],
      "name": "productId",
      "outputs": [
        {
          "name": "",
          "type": "uint256"
        }
      ],
      "payable": false,
      "stateMutability": "view",
      "type": "function"
    },
    {
      "constant": true,
      "inputs": [],
      "name": "depositFromSeller",
      "outputs": [
        {
          "name": "",
          "type": "uint256"
        }
      ],
      "payable": false,
      "stateMutability": "view",
      "type": "function"
    },
    {
      "constant": true,
      "inputs": [],
      "name": "fundsDisbursed",
      "outputs": [
        {
          "name": "",
          "type": "bool"
        }
      ],
      "payable": false,
      "stateMutability": "view",
      "type": "function"
    },
    {
      "inputs": [
        {
          "name": "_productId",
          "type": "uint256"
        },
        {
          "name": "_buyer",
          "type": "address"
        },
        {
          "name": "_seller",
          "type": "address"
        }
      ],
      "payable": true,
      "stateMutability": "payable",
      "type": "constructor"
    },
    {
      "constant": false,
      "inputs": [],
      "name": "getDepositFromBuyer",
      "outputs": [],
      "payable": true,
      "stateMutability": "payable",
      "type": "function"
    },
    {
      "constant": false,
      "inputs": [],
      "name": "getDepositFromSeller",
      "outputs": [],
      "payable": true,
      "stateMutability": "payable",
      "type": "function"
    },
    {
      "constant": false,
      "inputs": [],
      "name": "releaseDeposit",
      "outputs": [],
      "payable": false,
      "stateMutability": "nonpayable",
      "type": "function"
    }
  ],
  "bytecode": "0x60806040526040516060806105008339810180604052810190808051906020019092919080519060200190929190805190602001909291905050508260008190555081600160006101000a81548173ffffffffffffffffffffffffffffffffffffffff021916908373ffffffffffffffffffffffffffffffffffffffff16021790555080600260006101000a81548173ffffffffffffffffffffffffffffffffffffffff021916908373ffffffffffffffffffffffffffffffffffffffff160217905550346003819055506000600660006101000a81548160ff021916908315150217905550505050610409806100f76000396000f3006080604052600436106100a4576000357c0100000000000000000000000000000000000000000000000000000000900463ffffffff16806308551a53146100a95780631e9810e9146101005780635db53f8b146101175780637150d8ae14610142578063aa8c217c14610199578063b0133e24146101c4578063b1fa9dbc146101ce578063c5ce3911146101d8578063c966cc8d14610203578063d1a52e301461022e575b600080fd5b3480156100b557600080fd5b506100be61025d565b604051808273ffffffffffffffffffffffffffffffffffffffff1673ffffffffffffffffffffffffffffffffffffffff16815260200191505060405180910390f35b34801561010c57600080fd5b50610115610283565b005b34801561012357600080fd5b5061012c61037a565b6040518082815260200191505060405180910390f35b34801561014e57600080fd5b50610157610380565b604051808273ffffffffffffffffffffffffffffffffffffffff1673ffffffffffffffffffffffffffffffffffffffff16815260200191505060405180910390f35b3480156101a557600080fd5b506101ae6103a6565b6040518082815260200191505060405180910390f35b6101cc6103ac565b005b6101d66103b5565b005b3480156101e457600080fd5b506101ed6103be565b6040518082815260200191505060405180910390f35b34801561020f57600080fd5b506102186103c4565b6040518082815260200191505060405180910390f35b34801561023a57600080fd5b506102436103ca565b604051808215151515815260200191505060405180910390f35b600260009054906101000a900473ffffffffffffffffffffffffffffffffffffffff1681565b600160009054906101000a900473ffffffffffffffffffffffffffffffffffffffff1673ffffffffffffffffffffffffffffffffffffffff166108fc6004549081150290604051600060405180830381858888f193505050501580156102ed573d6000803e3d6000fd5b50600260009054906101000a900473ffffffffffffffffffffffffffffffffffffffff1673ffffffffffffffffffffffffffffffffffffffff166108fc600354600554019081150290604051600060405180830381858888f1935050505015801561035c573d6000803e3d6000fd5b506001600660006101000a81548160ff021916908315150217905550565b60045481565b600160009054906101000a900473ffffffffffffffffffffffffffffffffffffffff1681565b60035481565b34600581905550565b34600481905550565b60005481565b60055481565b600660009054906101000a900460ff16815600a165627a7a723058203c2140916d4cca5cabcb7d1156ff2845a8675ad87296a36525f6687dac6a3ebd0029",
  "source": "pragma solidity ^0.4.17;\n\ncontract Escrow{\n\n  uint public productId;\n  address public buyer;\n  address public seller;\n//  address public arbiter;\n  uint public amount;\n  uint public depositFromBuyer;\n  uint public depositFromSeller;\n  bool public fundsDisbursed;\n  /* mapping (address => bool) releaseAmount;\n  uint public releaseCount;\n  mapping (address => bool) refundAmount;\n  uint public refundCount; */\n\n  /* event CreateEscrow(uint _productId,address _buyer,address _seller,address _arbiter);\n  event UnlockAmount(uint _productId,string _operation,address operator);\n  event DisburseAmount(uint _productId,uint _amount,address _beneficiary); */\n\n  function Escrow(uint _productId, address _buyer, address _seller) payable public {\n    productId = _productId;\n    buyer = _buyer;\n    seller = _seller;\n    amount  = msg.value;\n    /*depositFromBuyer = _depositFromBuyer;\n    depositFromSeller = _depositFromSeller; */\n    fundsDisbursed = false;\n\n  //  emit CreateEscrow(_productId, _buyer, _seller, _arbiter );\n  }\n\n  function getDepositFromBuyer() payable public {\n    depositFromBuyer = msg.value;\n  }\n\n  function getDepositFromSeller() payable public {\n    depositFromSeller = msg.value;\n  }\n\n  function releaseDeposit() public{\n    buyer.transfer(depositFromBuyer);\n    seller.transfer(depositFromSeller+amount);\n    fundsDisbursed = true;\n  }\n\n  /* function escrowInfo() view public returns (address, address, address, bool, uint, uint) {\n    return (buyer, seller, arbiter, fundsDisbursed, releaseCount, refundCount);\n  } */\n\n/* function releaseAmountToSeller(address caller) public {\n  require(fundsDisbursed==false);\n  if((caller == buyer || caller == seller || caller == arbiter) && releaseAmount[caller] != true){\n    releaseAmount[caller] = true;\n    releaseCount += 1;\n    emit UnlockAmount(productId, \"release\", caller);\n  }\n\n  if(releaseCount == 2){\n    seller.transfer(amount);\n    fundsDisbursed = true;\n    emit DisburseAmount(productId, amount, seller);\n  }\n}\n\nfunction refundAmountToBuyer(address caller) public  {\n  require(!fundsDisbursed);\n  if((caller == buyer || caller == seller || caller == arbiter) && refundAmount[caller] != true){\n    refundAmount[caller] = true;\n    refundCount += 1;\n    emit UnlockAmount(productId, \"refund\", caller);\n  }\n\n  if(refundCount == 2){\n    buyer.transfer(amount);\n    fundsDisbursed = true;\n    emit DisburseAmount(productId, amount, buyer);\n  }\n} */\n\n}\n",
  "sourcePath": "/home/crownt/git/MYAuction/contracts/Escrow.sol",
  "compiler": {
    "name": "solc",
    "version": "0.4.24+commit.e67f0147.Emscripten.clang"
  },
  "schemaVersion": "2.0.1",
  "updatedAt": "2018-07-31T03:02:39.829Z"
}